:100000003EC058C09FC156C055C054C053C052C016
:1000100051C050C04FC04EC04DC04CC04BC0090273
:10002000120001010080050904000000000000002A
:1000300012011001FF000008030431C6060101028D
:1000400000011A036900320063002D00740069008A
:100050006E0079002D007500730062001A035400D1
:1000600069006C006C0020004800610072006200B2
:10007000610075006D00040309040100FF8E112466
:100080001FBECFE5D2E0DEBFCDBF10E0A0E6B0E0FE
:10009000EEE6F9E002C005900D92A636B107D9F759
:1000A00020E0A6E6B0E001C01D92A939B207E1F751
:1000B00027D45BC4A5CFCF93DF9360917F006350BB
:1000C00067FD13C080917C00CCE0D0E0C81BD10953
:1000D000CD57DF4F80917B008D3209F457C080915E
:1000E000660087FD9BC010927F008091610084FFB5
:1000F00040C0609160006F3F09F43BC0693008F474
:100100006FC068506093600080916F0098E8892705
:1001100080936F0068E08091660087FD1DC040916C
:100120007D0050917E0086FF70C0A0E7B0E0FA012C
:10013000962F84918D9331969150D9F72FEF260FFA
:1001400030E02F5F3F4F240F351F30937E00209308
:100150007D00C4E0C60F4FC080E790E04ED3682F0B
:10016000893008F4A0C08FEF80936000CEE1C09387
:10017000610094E186B3887131F49150D9F71092FF
:10018000800010927A00DF91CF910895683009F0D5
:10019000AACF83EC80936F008AE580936100109270
:1001A00066008881807609F043C08A8110927800C9
:1001B0009981911147C01092790028E730E082E0E0
:1001C00030937E0020937D008F3FA9F19F81911194
:1001D00004C09E81981708F4892F8093600083CF14
:1001E0001092600080916F0098E8892780936F00DB
:1001F000611191CFC4E080E790E0A0D0CC3009F449
:10020000B6CF8FEF80936000B2CFDA01E0E7F0E085
:10021000962F8D9181939150E1F790CFCE0132D3FB
:100220008F3FF9F0882309F45ECF109260005BCF16
:10023000CE0149D2C9CF988197FD1DC090E8909317
:100240006600CBCF953089F0963009F19830D9F01F
:10025000993099F081E09A3009F080E028E730E0A9
:10026000AFCF8EE1809361003ECF8093800028E77E
:1002700030E080E0A5CF8E81E1CF8093820028E737
:1002800030E080E09DCF22E830E081E099CF9B8193
:100290009130F1F09230A1F0933041F080E090E4A1
:1002A0009093660091CFC4E0C80FA5CF811118C00C
:1002B00086E790E090937E0080937D0084E0EFCF0E
:1002C0008EE190E090937E0080937D0082E1E7CF05
:1002D00080E390E090937E0080937D0082E1DFCF09
:1002E000813051F08230D1F682E490E090937E002C
:1002F00080937D008AE1D3CF8CE590E090937E00DF
:1003000080937D008AE1CBCFAC9A8BB780628BBFA4
:100310000895A82FB92F80E090E041E050EA609561
:1003200030E009C02D9182279795879510F084279A
:100330009527305EC8F36F5FA8F30895EADF8D93C9
:100340009D930895CF93CFB7CF93C395B39BE9F710
:10035000B39B0BC0B39B09C0B39B07C0B39B05C045
:10036000B39B03C0B39B01C0D3C00F92DF93C09176
:100370007C00DD27CD57DF4F012EB39B03C0DF91FB
:100380000F90E6CF2F930F931F934F932FEF4F6F45
:1003900006B303FB20F95F933F9350E03BE065C059
:1003A00016B30126502953FDC89556B3012703FB08
:1003B00025F92F7306B3B1F05027102713FB26F948
:1003C00006B22230F0F000C016B3012703FB27F974
:1003D0000126502906B22430E8F54F77206816B37D
:1003E0000000F6CF50274F7D206206B2102F00008C
:1003F00000C006B300265029102713FB26F906B2C9
:10040000E2CF4F7B06B3206400C0DACF012650292B
:10041000187106B269F14E7F2160012F16B328C012
:10042000002650294D7F06B22260102F29C00126D8
:1004300050294B7F06B22460012F2DC016B3012630
:100440005029477F2860000006B22EC04F7E06B3B9
:10045000206130C0422706B3499300265029102757
:1004600006B24FEF13FB20F9297F16B379F218710A
:1004700059F10126502906B2012703FB21F9237FF8
:1004800006B371F2002650293150D0F006B2102781
:1004900013FB22F9277E16B351F2012650290127BA
:1004A00003FB06B223F92F7C49F2000006B31027A4
:1004B00013FB24F90026502906B22F7939F270CFA8
:1004C00010E21ABF002717C03B503195C31BD04024
:1004D00010E21ABF0881033CF9F00B34E9F02091D7
:1004E0007A001981110F1213EDCF093651F10D3237
:1004F00011F0013E39F7009381003F915F914F91D8
:100500001F910F912F91DF910F90CAB7C5FD1DCF9D
:10051000CF91CFBFCF91189520918100222369F30D
:1005200010917F00112321F5343022F130937F00A8
:1005300020937B0010917C003BE0311B30937C00CA
:1005400019C000917F0001309CF40AE530916100F0
:1005500034FD11C000936100CFE6D0E010C0052744
:1005600010E000C021C0052710E0C89508BB14C0EA
:100570003AE501C032ED032EC0E0D0E032E017B31F
:100580001861C39A08B317BB58E120E84FEF20FF6A
:10059000052708BB279517951C3F28F700004552F3
:1005A000B0F720FF0527279508BB17951C3FB8F625
:1005B00029913A9561F7077E10918000110F08BBD1
:1005C000C250D04011F010937A0010E21ABF0860B8
:1005D00017B3177E402F477E54E05A95F1F708BBBA
:1005E00017BB48BB8ACFE0916200F091630031975E
:1005F000F1F7882359F0BA98C29AB29BFECF809146
:100600006400909165000197F1F70895BA9AC29835
:10061000F6CFB898C09A0895811103C0B89AC098CF
:100620000895F7CF80E0F8DF81E0DDDFF2CF0F93B0
:100630001F93CF93DF93082F10E0C7E0D0E007C0EF
:10064000E8DF81E0D0DF80E0CEDF219760F0980125
:100650000C2E02C0359527950A94E2F720FDF0CFC5
:1006600080E0DADFEECFD5DF81E0BDDFC6B380E02A
:10067000BADF8C2F80958170DF91CF911F910F9100
:1006800008951F93CF93DF93182FC3DF80E0ABDF74
:10069000D8E0C0E081E0A7DFCC0FB099C16080E076
:1006A000A2DFD150B9F711110CC080E0B5DF81E0B5
:1006B0009ADF80E098DFADDF8C2FDF91CF911F9123
:1006C0000895A7DFF4CF1F93CF93DF93EC0187E664
:1006D00090E090937E0080937D008981823009F4C0
:1006E0006BC090F4882309F45CC0813009F04BC0E2
:1006F00044E050E06AE770E087E690E026D184E0CD
:10070000DF91CF911F910895833009F441C0883063
:10071000D0F5C19A1C81110F8A8180FD11608981F9
:1007200080FD03C076DF81E05EDF80E075DF80E082
:100730005ADF812F7CDF882309F456C081E0809343
:100740006B008E819F8190936E0080936D00298154
:1007500020936C0021FF03C0892B09F443C0C1988A
:1007600081E02E813F81232B09F480E08195DF9188
:10077000CF911F91089596958795909363008093EC
:100780006200892B39F180E0DF91CF911F910895AC
:1007900080916B008093670081E0DF91CF911F9182
:1007A00008958A81809367008B818093680082E03E
:1007B000DF91CF911F9108958A819B81909365006D
:1007C000809364000097B9F681E090E09093650013
:1007D0008093640081E090E09093630080936200D6
:1007E00080E0D2CF1FDFBBCF82E080936B001092FE
:1007F0006E0010926D0016DFB2CFEF92FF920F9352
:100800001F93CF93DF93E82EF62E80916B008130FB
:1008100071F0462F50E060E070E08E2D9FD08F2D5C
:10082000DF91CF911F910F91FF90EF900895C091AC
:100830006D00D0916E00262F30E0C217D30708F468
:10084000FC2EFF2099F00E2D192F2197D0936E00CA
:10085000C0936D0081E0209709F080E012DFF8017D
:1008600081938F019E2F9E199F1578F380916C00C4
:1008700081FFD5CF20916D0030916E00232B79F64A
:10088000D1DECDCFEF92FF920F931F93CF93DF93E3
:10089000F62E20916B00213069F0462F50E060E089
:1008A00070E05CD08F2DDF91CF911F910F91FF9061
:1008B000EF90089500916D0010916E00262F30E0AA
:1008C0000217130708F4F02EFF2071F0E82EEC0158
:1008D0000150110910936E0000936D008991A7DEFD
:1008E0009C2F9E199F15A0F380916C0081FFDACF99
:1008F00020916D0030916E00232BA1F693DED2CFB4
:100900002EE088E190E00FB6F894A89581BD0FBE67
:1009100021BDB898C09ABA98C29A10926E001092EF
:100920006D00B99AC19888B3877E88BB87B3886108
:1009300087BB80E49CE90197F1F787B3877E87BB8B
:10094000E3DC7894A895B7DBFDCFFB01DC0102C0A6
:1009500005900D9241505040D8F70895DC0101C038
:0E0960006D9341505040E0F70895F894FFCF9A
:06096E00FF5A05000A001B
:00000001FF
